:100000000C9434000C943E000C943E000C943E0082
:100010000C943E000C943E000C943E000C943E0068
:100020000C943E000C943E000C943E000C943E0058
:100030000C943E000C943E000C943E000C943E0048
:100040000C943E000C943E000C943E000C943E0038
:100050000C943E000C943E000C943E000C943E0028
:100060000C943E000C943E0011241FBECFEFD8E04C
:10007000DEBFCDBF0E9440000C94C1010C94000073
:10008000CF93DF93CDB7DEB767970FB6F894DEBF97
:100090000FBECDBF80EF87B98FE088B983EC8AB9F6
:1000A0008CE38BB987E084B976B156B1547096B1C0
:1000B000987036B1307169B1647049B1487089B1D6
:1000C000807129B1207201E010E01A830983E72FC3
:1000D000E27071FD02C01A821982A1E0B0E0BC8317
:1000E000AB83611102C01C821B8288248394912CF3
:1000F000EE2311F0812C912CE1E0F0E0FE83ED8302
:10010000662311F01E821D82AA24A394B12C5111E2
:1001100002C0A12CB12C01E010E018870F8341111F
:1001200002C018861F8261E070E0552311F060E084
:1001300070E066246394712C442311F0612C712CBF
:100140004F815885A49EF001A59EF00DB49EF00D40
:100150001124669DA001679D500D769D500D1124C0
:10016000DF01A40FB51FBF8BAE8BEE24E394F12CFF
:10017000911102C0E12CF12C44244394512C8111A3
:1001800002C0412C512C22242394312C992311F0AC
:10019000212C312C01E010E0882311F000E010E068
:1001A000E49CA001E59C500DF49C500D1124209E70
:1001B000C001219E900D309E900D1124480F591FB3
:1001C000E1E0F0E0FA87E987311102C01A8619866A
:1001D00081E090E09C878B87211102C01C861B86E2
:1001E000A1E0B0E0BE87AD87332311F01E861D86E7
:1001F000E1E0F0E0FB8BEA8B222311F01B8A1A8AE4
:10020000C984DA848B859C85C89E9001C99E300D77
:10021000D89E300D1124AD85BE85EA89FB89AE9F3D
:10022000C001AF9F900DBE9F900D1124280F391F64
:100230006A01C222D322D88ACF868E899F898423DD
:100240009523D5B0D98AE981FA81CB80DC80EC9DF9
:10025000D001ED9DB00DFC9DB00D1124BD8BAC8B7C
:10026000AD81BE818A9E60018B9ED00C9A9ED00C7F
:100270001124AC89BD89AC0DBD1DEE89FF89EA232F
:10028000FB23E423F523E223F32341E0EF2B09F4DE
:1002900040E0B9894B2B45B9D5B0E09EA001E19E65
:1002A000500DF09E500D112442235323E985FA8509
:1002B000EA88FB88EE9DD001EF9DB00DFE9DB00D4C
:1002C00011244A2B5B2BA69CF001A79CF00DB69C39
:1002D000F00D11240F851889E023F1234E2B5F2B9D
:1002E000E981FA81ED80FE80EE9DD001EF9DB00D99
:1002F000FE9DB00D1124A223B323A823B9234A2BBA
:100300005B2B440F551F4D2945B9A5B1429CA00157
:10031000439C500D529C500D1124422353230B85B6
:100320001C85CD84DE840C9DF0010D9DF00D1C9D7F
:10033000F00D11244E2B5F2BEF80F884E69EF00128
:10034000E79EF00DF69EF00D11246F8578896E23DF
:100350007F23462B572B0B811C81089DB001099DE3
:10036000700D189D700D11242623372382239323AB
:10037000842B952B880F991F880F991FA82BA5B93F
:0603800093CEF894FFCFBC
:00000001FF
